:100000000C9462000C948A000C948A000C948A0070
:100010000C948A000C948A000C948A000C948A0038
:100020000C948A000C948A000C948A000C948A0028
:100030000C948A000C948A000C948A000C948A0018
:100040000C94FD020C948A000C946D030C944703ED
:100050000C948A000C948A000C948A000C948A00F8
:100060000C948A000C948A000000000024002700F1
:100070002A0000000000250028002B0000000000DE
:1000800023002600290004040404040404040202DA
:100090000202020203030303030301020408102007
:1000A0004080010204081020010204081020000012
:1000B0000008000201000003040700000000000027
:1000C0000000430511241FBECFEFD8E0DEBFCDBF37
:1000D00011E0A0E0B1E0E8EBFBE002C005900D927A
:1000E000AC32B107D9F721E0ACE2B1E001C01D921A
:1000F000AD3EB207E1F710E0C2E6D0E004C02197C0
:10010000FE010E94C505C136D107C9F70E949F03B1
:100110000C94DA050C940000833081F028F48130CF
:1001200099F08230A9F008958730A9F08830C9F09D
:100130008430B1F4809180008F7D03C08091800075
:100140008F7780938000089584B58F7784BD08955C
:1001500084B58F7DFBCF8091B0008F778093B00006
:1001600008958091B0008F7DF9CFCF93DF93282F32
:1001700030E0F901E255FF4F8491F901E656FF4F57
:10018000D491F901EA57FF4FC491CC23A1F081111A
:100190000E948C00EC2FF0E0EE0FFF1FE458FF4FA1
:1001A000A591B491EC91ED2381E090E009F480E019
:1001B000DF91CF91089580E090E0FACF1F93CF9325
:1001C000DF93282F30E0F901E255FF4F8491F901C8
:1001D000E656FF4FD491F901EA57FF4FC491CC2363
:1001E000A9F0162F81110E948C00EC2FF0E0EE0F89
:1001F000FF1FEE58FF4FA591B4918FB7F894EC9183
:10020000111108C0D095DE23DC938FBFDF91CF9111
:100210001F910895DE2BF8CFCF93DF9390E0FC0180
:10022000E656FF4F24918A579F4FFC018491882303
:10023000D1F090E0880F991FFC01E859FF4FA5917C
:10024000B491FC01EE58FF4FC591D49161110EC0DD
:100250009FB7F8948C91E22FE0958E238C932881A0
:10026000E223E8839FBFDF91CF9108958FB7F89481
:10027000EC91E22BEC938FBFF6CF2FB7F8946091FF
:10028000E9017091EA018091EB019091EC012FBF9F
:100290000895AF92BF92CF92DF92EF92FF920F93A9
:1002A0001F93CF93DF936C017B018B01040F151F0C
:1002B000EB015E01AE18BF08C017D10759F0699174
:1002C000D601ED91FC910190F081E02DC6010995D8
:1002D000892B79F7C501DF91CF911F910F91FF9085
:1002E000EF90DF90CF90BF90AF900895FC01538DB9
:1002F000448D252F30E0842F90E0821B930B541700
:1003000010F0CF96089501970895FC01918D828D8C
:10031000981761F0A28DAE0FBF2FB11D5D968C9125
:10032000928D9F5F9F73928F90E008958FEF9FEF64
:100330000895FC01918D828D981731F0828DE80F20
:10034000F11D858D90E008958FEF9FEF0895FC01DA
:10035000918D228D892F90E0805C9F4F821B9109A7
:100360008F739927089586E391E00E94A70121E009
:10037000892B09F420E0822F089580E090E0892BFA
:1003800029F00E94B30181110C9400000895FC0132
:10039000A48DA80FB92FB11DA35ABF4F2C91848DE6
:1003A00090E001968F739927848FA689B7892C9343
:1003B000A089B1898C91837080648C93938D848D96
:1003C000981306C00288F389E02D80818F7D808399
:1003D0000895EF92FF920F931F93CF93DF93EC0159
:1003E00081E0888F9B8D8C8D98131AC0E889F989DC
:1003F000808185FF15C09FB7F894EE89FF896083DF
:10040000E889F98980818370806480839FBF81E05F
:1004100090E0DF91CF911F910F91FF90EF900895A1
:10042000F62E0B8D10E00F5F1F4F0F731127E02E7C
:100430008C8D8E110CC00FB607FCFACFE889F989B4
:10044000808185FFF5CFCE010E94C701F1CFEB8DF2
:10045000EC0FFD2FF11DE35AFF4FF0829FB7F89488
:100460000B8FEA89FB8980818062CFCFCF93DF93A6
:10047000EC01888D8823B9F0AA89BB89E889F989BC
:100480008C9185FD03C0808186FD0DC00FB607FCF1
:10049000F7CF8C9185FFF2CF808185FFEDCFCE0124
:1004A0000E94C701E9CFDF91CF910895CF92DF92EB
:1004B000EF92FF920F931F93CF93DF936B017C0119
:1004C000C091DC01D091DD018091D8019091D901DA
:1004D0008C179D0751F00E943D016093320170938B
:1004E000330180933401909335010E943D010091C6
:1004F0003201109133012091340130913501601B9C
:10050000710B820B930BC616D706E806F90670F43A
:100510008091300190913101C817D90739F0D093FB
:100520003101C093300181E0219709F080E0DF9133
:10053000CF911F910F91FF90EF90DF90CF90089592
:10054000CF92DF92EF92FF920F931F93CF938C0184
:100550000E943D01C0902C01D0902D01E0902E0111
:10056000F0902F016C197D098E099F096D32714041
:1005700081059105E0F00E943D0160932C0170938C
:100580002D0180932E0190932F01C091D30104304F
:100590001105ACF4000F111FF801ED5EFE4F6C2F3A
:1005A00080810E94DE0081E0C827C093D301CF91F3
:1005B0001F910F91FF90EF90DF90CF9008950091E1
:1005C000DA011091DB01063011056CF76C2F88E021
:1005D0000E94DE006C2F89E00E94DE006C2F8AE012
:1005E0000E94DE006C2F8BE00E94DE000F5F1F4F29
:1005F0001093DB010093DA01D6CF1F920F920FB652
:100600000F9211242F933F938F939F93AF93BF9398
:100610008091E9019091EA01A091EB01B091EC0188
:100620003091E8012DE2230F2D3758F50196A11DD9
:10063000B11D2093E8018093E9019093EA01A09312
:10064000EB01B093EC018091E4019091E501A09160
:10065000E601B091E7010196A11DB11D8093E4016F
:100660009093E501A093E601B093E701BF91AF91AC
:100670009F918F913F912F910F900FBE0F901F90E0
:10068000189520EB230F0296A11DB11DD2CF1F920A
:100690000F920FB60F9211242F933F934F935F93B6
:1006A0006F937F938F939F93AF93BF93EF93FF933A
:1006B00086E391E00E94C701FF91EF91BF91AF9156
:1006C0009F918F917F916F915F914F913F912F916A
:1006D0000F900FBE0F901F9018951F920F920FB69C
:1006E0000F9211242F938F939F93EF93FF93E09199
:1006F0004601F09147018081E0914C01F0914D015C
:1007000082FD1BC0908180914F018F5F8F7320917C
:100710005001821741F0E0914F01F0E0EA5CFE4F9A
:10072000958F80934F01FF91EF919F918F912F9122
:100730000F900FBE0F901F9018958081F4CF789482
:1007400084B5826084BD84B5816084BD85B58260D6
:1007500085BD85B5816085BD80916E008160809387
:100760006E001092810080918100826080938100F0
:100770008091810081608093810080918000816000
:10078000809380008091B10084608093B10080915B
:10079000B00081608093B00080917A008460809383
:1007A0007A0080917A00826080937A0080917A004A
:1007B0008E7F80937A0080917A00806880937A009F
:1007C0001092C100E0914601F091470182E08083E0
:1007D000E0914201F09143011082E0914401F091D7
:1007E000450183E3808310924E01E0914A01F0912C
:1007F0004B0186E08083E0914801F09149018081BE
:1008000080618083E0914801F09149018081886096
:100810008083E0914801F091490180818068808364
:10082000E0914801F091490180818F7D808361E0F2
:1008300085E00E940C0161E086E00E940C0160E00E
:1008400082E00E940C0160E083E00E940C0161E004
:1008500088E00E940C0161E089E00E940C0161E0E7
:100860008AE00E940C0161E08BE00E940C014DE0E7
:1008700050E06BE171E086E391E00E94490142E0C3
:1008800050E069E271E086E391E00E94490190EE58
:10089000492E9EE2592E612C712C29E1A22EB12CF9
:1008A00030E0832E30E0932EC1E00E943D010091A4
:1008B000E0011091E1012091E2013091E301601B20
:1008C000710B820B930B653A78438105910510F00B
:1008D000C0930001809100018823D1F11092DF01C3
:1008E0001092DE0160E088E00E94DE0060E089E0B6
:1008F0000E94DE0060E08AE00E94DE0060E08BE0A3
:100900000E94DE0082E00E94B5008C019093DD0120
:100910008093DC0162E370E080E090E00E94560288
:10092000882391F00E943D016093E0017093E10102
:100930008093E2019093E301C093DF0110920001E4
:100940001092DB011092DA011093D9010093D801C3
:100950008091DF01882309F490C083E00E94B500F4
:100960008C019093DD018093DC0168EE73E080E000
:1009700090E00E945602882371F00E943D0160932E
:10098000D4017093D5018093D6019093D701C09381
:10099000DE011092D3018091DE01811152C01093CB
:1009A000D9010093D8010E943D010091E00110910E
:1009B000E1012091E2013091E3016B017C01C01A59
:1009C000D10AE20AF30AA7019601A4E6B0E00E9468
:1009D000A605A30192010E948405C901B5010E94E8
:1009E00070058B0164307105ACF483E1C82E81E0A1
:1009F000D82EF12CE12CE016F10664F4F60180818A
:100A0000F2E0CF0ED11C61E00E94DE002FEFE21A6F
:100A1000F20AF1CFC8010E94A00261E085E00E94C5
:100A2000DE0060E086E00E94DE008114910409F49B
:100A30003CCF0E94B301882309F437CF0E94000005
:100A400034CF84E090E00E94A0020E943D0100911A
:100A5000D4011091D5012091D6013091D701601BAE
:100A6000710B820B930B653C794081059105A8F2CF
:100A70001092DF01C0930001D0CF60E085E00E94BA
:100A8000DE0061E0CFCFE6E3F1E01382128288EE70
:100A900093E0A0E0B0E084839583A683B78385E0EC
:100AA00091E09183808385EC90E09587848784EC46
:100AB00090E09787868780EC90E0918B808B81EC2B
:100AC00090E0938B828B82EC90E0958B848B86EC0C
:100AD00090E0978B868B118E128E138E148E089554
:100AE00097FB072E16F4009407D077FD09D00E94DB
:100AF000B10507FC05D03EF4909581959F4F089570
:100B0000709561957F4F0895A1E21A2EAA1BBB1B19
:100B1000FD010DC0AA1FBB1FEE1FFF1FA217B307C9
:100B2000E407F50720F0A21BB30BE40BF50B661FDF
:100B3000771F881F991F1A9469F7609570958095A3
:100B400090959B01AC01BD01CF0108950E94CB059A
:100B5000A59F900DB49F900DA49F800D911D112411
:100B60000895AA1BBB1B51E107C0AA1FBB1FA617F4
:100B7000B70710F0A61BB70B881F991F5A95A9F746
:100B800080959095BC01CD010895EE0FFF1F059053
:100B9000F491E02D0994A29FB001B39FC001A39FDF
:100BA000700D811D1124911DB29F700D811D1124A6
:080BB000911D0895F894FFCF98
:100BB8000100000000E901490176013602A701851C
:100BC800019901080009000A000B0053657475704B
:0C0BD80020636F6D706C6574000D0A00E6
:00000001FF
